:100000000C9407070C9424070C9424070C942407E1
:100010000C9424070C9424070C9424070C942407B4
:100020000C9424070C9424070C9436180C9478171D
:100030000C94811F0C9424070C9424070C9424071F
:100040000C9424070C9424070C9424070C94240784
:100050000C9424070C94431F0C9424070C9424073D
:100060000C9424070C9424070C9424070C94240764
:100070000C9424070C9424070C9424070C94240754
:100080000C9424070C9424070C9424070C94240744
:100090000C9424070C9424070C9424070C94240734
:1000A0000C9424070C9424070C9424078B0B8B0BC3
:1000B000BD0BBD0B2F0C6D0D6D0D6D0D4B0CD90CCB
:1000C000EA0CEA0C9515BC156017BC1560170816EC
:1000D0002B166017211730177267626C6967687496
:1000E0002064697361626C65205B454550524F4DD9
:1000F0005D3A207267626C696768745F636F6E66F1
:1001000069672E656E61626C65203D2025750A0069
:100110007267626C6967687420656E61626C6520E5
:100120005B454550524F4D5D3A207267626C69677E
:1001300068745F636F6E6669672E656E61626C6579
:10014000203D2025750A007267626C69676874201B
:10015000746F67676C65205B454550524F4D5D3A43
:10016000207267626C696768745F636F6E66696747
:100170002E656E61626C65203D2025750A00444540
:100180004255473A2064697361626C65642E0A00C7
:1001900044454255473A20656E61626C65642E0A9B
:1001A000004F6E6573686F743A2061637469766599
:1001B0003A2025640A000A002530325820006B6579
:1001C00079626F6172645F7265706F72743A200059
:1001D00029001E001F00200021002200230024000F
:1001E0002500260027002D002E002A0035002B00B8
:1001F00014001A000800150017001C0018000C005D
:10020000120013002F00300031004C0039000400B0
:100210001600070009000A000B000D000E000F0079
:1002200033003400000028004B00E10000001D00F6
:100230001B000600190005001100100036003700F1
:100240003800E50052004E00E000E300E20000004C
:10025000000000002C0000000000E6000151E40056
:10026000500051004F00005C3A003B003C003D0054
:100270003E003F0040004100420043004400450072
:100280004C00460001000100520001000100010085
:1002900001000100010001000100AC00AB000251AF
:1002A00049000100500051004F0001000100010011
:1002B000010001000100010001000000AE004A0041
:1002C0000100000001000100010001000100010027
:1002D000A800AA00A9000100010001004D000100D2
:1002E000C35C0100000000000000010000000000ED
:1002F00001000100010001000100010000000000F8
:1003000000000000000000000000000000000000ED
:100310000000BE00BD000000B3000000CE5CCF5C5A
:10032000D05C00000000000000005F006000610081
:1003300057008500010000000000D25CD35CD45C53
:1003400000000000000000005C005D005E00560040
:1003500000005800000000000000D15CD55CD65CB5
:1003600000000000000059005A005B006700000018
:10037000CA5C000000000000000000000000000057
:10038000000000000000620000000000CD5CCB5CBB
:10039000CC5C0631FF0974A1010975150026FF0028
:1003A0009520750881020976150026FF00952075B5
:1003B000089102C005010980A101850319012AB72E
:1003C00000150126B700950175108100C0050C09C4
:1003D00001A101850419012AA002150126A0029598
:1003E0000175108100C005010906A101050719E08A
:1003F00029E7150025019508750181029501750809
:1004000081010507190029FF150026FF00950675D3
:1004100008810005081901290595057501910295C6
:100420000175039101C05B435D005B445D005B535C
:100430005D005B575D005B525D0009025B000301DC
:1004400000A0FA09040000010301010009211101C3
:100450000001224000070581030800010904010092
:1004600001030000000921110100012232000705EB
:100470008203200001090402000203000000092198
:100480001101000122220007058303200001070556
:1004900003032000011201000200000008CAFA0153
:1004A000000100010200011603610064006F002ECC
:1004B000007300690063006B003600380000001410
:1004C0000368006500690074006F007200610064D9
:1004D000006F000000040309047267626C696768BA
:1004E000745F636F6E6669672E7370656564203D27
:1004F0002025640A007267626C696768745F636FC5
:100500006E6669672E76616C203D2025640A007254
:1005100067626C696768745F636F6E6669672E7384
:100520006174203D2025640A007267626C69676807
:10053000745F636F6E6669672E687565203D202560
:10054000640A007267686C696768745F636F6E66DF
:1005500069672E6D6F6465203D2025640A0072670F
:10056000626C696768745F636F6E6669672E656E3B
:1005700061626C65203D2025640A007267626C69C7
:100580006768745F636F6E66696720454550524FB8
:100590004D3A0A007267626C696768745F696E69D8
:1005A00074207267626C696768745F636F6E6669F6
:1005B000672E6D6F6465203D20302E205772697460
:1005C000652064656661756C742076616C75657311
:1005D00020746F20454550524F4D2E0A00726762BD
:1005E0006C696768745F696E6974206565636F6EB6
:1005F000666967206973206E6F7420656E61626C36
:1006000065642E0A007267626C696768745F696E60
:100610006974207374617274210A007267626C6974
:100620006768745F696E69742063616C6C65642EC1
:100630000A007267626C696768742064697361623A
:100640006C65205B4E4F454550524F4D5D3A2072D0
:1006500067626C696768745F636F6E6669672E6551
:100660006E61626C65203D2025750A005B735D003C
:100670000A002530313662003A2000253032580019
:100680000A722F63203031323334353637383941EE
:1006900042434445460A00643214783C1E1E140A44
:1006A000050A0025303258006C65645F7461736B15
:1006B0003A20007267626C696768742074696D65BE
:1006C000722064697361626C652E0A0022232526FC
:1006D00028292A2C2D2F3032333536383A3B3D3EEF
:1006E0004042434547494A4C4E5051535557595A39
:1006F0005C5E6062646668696B6D6F717375777953
:100700007B7D7F81838587898A8C8E909294969851
:100710009A9C9E9FA1A3A5A7A8AAACAEAFB1B3B463
:10072000B6B8B9BBBCBEBFC1C2C3C5C6C7C9CACBB8
:10073000CCCDCED0D1D2D2D3D4D5D6D7D7D8D9D983
:10074000DADADBDBDBDCDCDCDCDCDDDDDDDDDCDCEC
:10075000DCDCDCDBDBDBDADAD9D9D8D7D7D6D5D409
:10076000D3D2D2D1D0CECDCCCBCAC9C7C6C5C3C2D5
:10077000C1BFBEBCBBB9B8B6B4B3B1AFAEACAAA82A
:10078000A7A5A3A19F9E9C9A98969492908E8C8ADE
:1007900089878583817F7D7B79777573716F6D6BB9
:1007A0006968666462605E5C5A5957555351504E91
:1007B0004C4A4947454342403E3D3B3A3836353343
:1007C00032302F2D2C2A2928262523226B65796D7E
:1007D00061705F636F6E6669672E7261773A20257C
:1007E0003032580A2E737761705F636F6E74726F68
:1007F0006C5F636170736C6F636B3A2025750A2EB2
:10080000636170736C6F636B5F746F5F636F6E7443
:10081000726F6C3A2025750A2E737761705F6C6376
:10082000746C5F6C6775693A2025750A2E73776161
:10083000705F7263746C5F726775693A2025750A20
:100840002E737761705F6C616C745F6C6775693A69
:100850002025750A2E737761705F72616C745F7208
:100860006775693A2025750A2E6E6F5F6775693A5C
:100870002025750A2E737761705F67726176655FF8
:100880006573633A2025750A2E737761705F626124
:10089000636B736C6173685F6261636B73706163D8
:1008A000653A2025750A2E6E6B726F3A2025750AFF
:1008B0002E737761705F6573636170655F636170EC
:1008C000736C6F636B3A2025750A00646562756707
:1008D0005F636F6E6669672E7261773A20253032EA
:1008E000580A2E656E61626C653A2025750A2E6D78
:1008F00061747269783A2025750A2E6B6579626F8A
:100900006172643A2025750A2E6D6F7573653A2001
:1009100025750A006565636F6E6669673A0A6465E6
:100920006661756C745F6C617965723A2025750A31
:10093000000A092D204D61676963202D0A443A0998
:100940004465627567204D65737361676520546FF8
:1009500067676C650A583A094D617472697820447A
:1009600065627567204D6F646520546F67676C65BD
:10097000202D2053686F77206B65797072657373D3
:10098000657320696E206D61747269782067726981
:10099000640A4B3A094B6579626F61726420446561
:1009A00062756720546F67676C65202D2053686FF0
:1009B00077206B65797072657373207265706F72E2
:1009C000740A4D3A094465627567204D6F75736509
:1009D00020546F67676C650A563A095665727369E9
:1009E0006F6E0A533A095374617475730A433A0976
:1009F000416374697661746520436F6E736F6C65D3
:100A0000204D6F64650A46312D4631303A095377DF
:100A10006974636820746F204C6179657220302D91
:100A2000392028463130203D204C30290A302D39DC
:100A30003A0953776974636820746F204C61796553
:100A40007220302D390A47524156453A0953776989
:100A500074636820746F204C61796572203020289F
:100A6000616C7465726E617465290A423A094A754F
:100A70006D7020746F20426F6F746C6F616465726B
:100A80000A4553433A094A756D7020746F20426FCE
:100A90006F746C6F616465722028616C7465726E2E
:100AA000617465290A453A095072696E742045459A
:100AB00050524F4D2053657474696E67730A4241FA
:100AC000434B53504143453A09436C65617220459D
:100AD0004550524F4D0A000A092D20436F6E736F27
:100AE0006C65202D0A4553432F713A09717569745D
:100AF0000A002573000A092D205374617475732050
:100B00002D0A686F73745F6B6579626F6172645FE1
:100B10006C65647328293A20253032580A6B657950
:100B2000626F6172645F70726F746F636F6C3A2092
:100B3000253032580A6B6579626F6172645F69644F
:100B40006C653A20253032580A74696D65725F729F
:100B5000656164333228293A202530386C580A0000
:100B60003F000A6D6F7573653A206F66660A000A6A
:100B70006D6F7573653A206F6E0A000A6B65796256
:100B80006F6172643A206F66660A000A6B6579626B
:100B90006F6172643A206F6E0A000A6D6174726947
:100BA000783A206F66660A000A6D61747269783A55
:100BB000206F6E0A000A64656275673A206F666688
:100BC0000A000A64656275673A206F6E0A000A0AB5
:100BD0004A756D70696E6720746F20626F6F746CF8
:100BE0006F616465722E2E2E2000433E2000436C00
:100BF000656172696E6720454550524F4D0A004C41
:100C000025640A003F00433E20000001010101016C
:100C100001010101020202020202020202030303B5
:100C20000303030303040404040404040505050585
:100C30000506060606060707070707080808080945
:100C40000909090A0A0A0B0B0B0C0C0C0D0D0D0EF1
:100C50000E0E0F0F0F101011111112121313141486
:100C6000151516161717181819191A1A1B1B1C1DFB
:100C70001D1E1E1F20202122222324242526262754
:100C80002829292A2B2C2D2D2E2F30313232333486
:100C900035363738393A3B3C3D3E3F40414243448C
:100CA00045464748494A4C4D4E4F5051535455566E
:100CB00058595A5B5D5E5F616264656668696B6C1A
:100CC0006D6F7072737577787A7B7D7E8082838595
:100CD00087888A8C8E8F91939596989A9C9EA0A2D5
:100CE000A3A5A7A9ABADAFB1B3B5B7BABCBEC0C2DF
:100CF000C4C6C9CBCDCFD1D4D6D8DBDDDFE2E4E7A3
:100D0000E9EBEEF0F3F5F8FAFDFF7267626C6967E4
:100D10006874206D6F6465205B4E4F454550524F9F
:100D20004D5D3A2025750A007267626C69676874C8
:100D3000206D6F6465205B454550524F4D5D3A20F4
:100D400025750A007267626C6967687420656E6158
:100D5000626C65205B4E4F454550524F4D5D3A20C9
:100D60007267626C696768745F636F6E6669672E2D
:100D7000656E61626C65203D2025750A00726762B0
:100D80006C696768742073657420687376205B4EA5
:100D90004F454550524F4D5D3A2025752C25752CF9
:100DA00025750A007267626C6967687420736574E0
:100DB00020687376205B454550524F4D5D3A2025A3
:100DC000752C25752C25750A007267626C69676839
:100DD00074207261696E626F772073657420687326
:100DE000763A2025642C25642C25642C25750A0070
:100DF000FFAA7F55407267626C69676874207469E6
:100E00006D657220656E61626C65642E0A00112446
:100E10001FBECFEFDAE0DEBFCDBF12E0A0E0B1E051
:100E2000E6EFF0E502C005900D92AE33B107D9F7B9
:100E300023E0AEE3B2E001C01D92A13CB207E1F7AE
:100E40000E9461190C9479280C940000FF93EF9391
:100E5000E0913E02F0913F02309709F00995EF9141
:100E6000FF910895FC018591803011F0EFDFFBCFF9
:100E70000895FF27E0E230E247FF0CC0419597FF5D
:100E800009C0EDE26095709580959095611D711D8A
:100E9000811D911D27FF02C0219530E350E2AA2752
:100EA000660F771F881F991FAA1FA41710F0A41B95
:100EB00063955A95A9F7AA3008F0A95FA05DAF9392
:100EC000F395611571058105910541F7ED3211F436
:100ED000EF93F395F21718F43F93F395FBCF8F91AF
:100EE000B5DFFA95E1F70895E991F99185918030A0
:100EF00021F0853219F0AADFF9CF089520E0E894B7
:100F000055915532C1F3503311F4689455915A33C9
:100F100048F4505390F3220F022E220F220F200D7F
:100F2000250FF4CF0EF4219589919991533619F339
:100F3000533729F1533559F1BC0188279927E89493
:100F40005C3621F48991999168945591543639F41D
:100F500046EF7EF077FF0DC08FEF9FEF0AC0553749
:100F60004AE039F0583540E121F0523642E009F0CC
:100F70000895FF93EF937DDFEF91FF91B7CFFF933C
:100F8000EF93FC0181918030B9F360DFFBCFFF93D9
:100F9000EF9368DFF1CFDF93CF93CDB7DEB7259620
:100FA000A3DFCF91DF9108950E946E232FEF84E39A
:100FB0009CE0215080409040E1F700C000009AE0A2
:100FC00088E10FB6F894A895809360000FBE9093C7
:100FD0006000FFCFA7E1B0E0E0EFF7E00C94372826
:100FE0004B8B5C8B6D8B7E8B8F8B611110928A0289
:100FF00086E09E01235F3F4FD901E82F1D92EA95BD
:10100000E9F795E0FE017396D90101900D929A954A
:10101000E1F79C894E895F897B897D879E876F87F1
:10102000598B488BF901DE01179601900D928A9534
:10103000E1F7CE0107960E94041381113EC086E0BD
:10104000FE013796DE01119601900D928A95E1F727
:10105000FF81E8856A857B856115710531F0EF3F79
:1010600031F481E0FF3F19F403C081E001C080E06A
:1010700080FD23C020914F0230E0C90101968770A6
:1010800099274091800250E08417950779F1F98300
:10109000EA837D836C8396E0929FD001939FB00D8D
:1010A0001124A05BBD4FFE01319601900D929A95DF
:1010B000E1F780934F020E94911216E08091800226
:1010C00090914F028917F9F0189FC0011124805B9D
:1010D0009D4F0E9404138823B1F08091800290E01C
:1010E00001968770992780938002E8CF0E946E2333
:1010F00010924F0210928002E9E4F2E086E0DF01F4
:101100001D928A95E9F76796E3E00C945328AAE0CC
:10111000B0E0EDE8F8E00C942F28FC01808191818B
:1011200023813481232B31F09F3F31F491E08F3FB5
:1011300019F403C091E001C090E090FDDBC57F0190
:1011400085E0DE01169601900D928A95E1F7F70190
:1011500022818E819F81222349F00E945F22182FD5
:10116000682F8E819F810E94D32203C00E94A022FB
:10117000182F6E817F81812F0E94AA0F8C01843FDE
:10118000FCE59F0759F190F4093D8CE51807E9F05B
:101190000A3D9CE51907A1F1083DECE51E07B1F5F4
:1011A00006E221EE41EE68ED7CE514C0863FFCE5E9
:1011B0009F0701F1C8F0073F8CE5180739F507E2F2
:1011C00025EE46EE67EF7CE505C007E225EE45EE2D
:1011D00069ED7CE5C7010E940A202CC206E221EEDF
:1011E00040EE64EF7CE5F6CF07E225EE44EE65EFD6
:1011F0007CE5F0CF06E221EE42EE66EF7CE5EACF39
:1012000008E221E045EE6AED7CE5E4CFF70182815A
:10121000882309F497C1109283030430FDE51F076A
:1012200058F40B3F2CE51207C0F4C80182509C45CE
:10123000449708F071C111C0063A8DE5180769F0AE
:1012400030F40236EDE51E0709F066C106C0C8019C
:101250008E5A9D45039708F05FC10E944A119093F2
:10126000B8028093B7020231FCE51F0709F40CC1F4
:1012700008F04DC009308CE5180709F4D9C008F50D
:101280000530ECE51E0709F4C0C080F403302CE5FE
:10129000120709F4B1C008F0B5C002309CE5190787
:1012A00009F02AC18091B7028160A9C00730ECE53E
:1012B0001E0709F4B5C008F0B7C08091B70280617D
:1012C0009EC00D302CE5120709F4C8C058F40B304D
:1012D0009CE5190709F4B6C008F0BCC08091B702BC
:1012E0008860ACC00F30FCE51F0709F4C5C008F4E6
:1012F000B8C000318CE5180709F4C2C001319CE583
:10130000190709F0F9C08091B7028F7B78C00115E9
:10131000EDE51E0709F4C3C098F50B3F2CE5120755
:1013200009F477C0C0F404319CE5190709F4C6C07C
:1013300008F4B0C00531FCE51F0709F0DDC080915D
:10134000B70282FB222720F991E0922790FB82F9D5
:1013500090FB83F954C00D3F2CE5120709F485C0BA
:1013600008F45AC00E3F9CE5190709F481C00F3FED
:10137000ECE51E0709F0C0C08091B802826060C031
:101380000236FDE51F0709F4ABC070F402308DE5AD
:10139000180709F49FC008F487C00330EDE51E0765
:1013A00009F0AAC060E097C00E3AFDE51F0701F101
:1013B00060F4063A8DE5180709F09EC08091B702E7
:1013C000982F909590FB80F91AC00F3A9DE5190768
:1013D000E9F1003BEDE51E0709F08EC08091B802EF
:1013E00083FB222720F991E0922790FB83F982C0AA
:1013F0008091B80288607EC08091B702826080933D
:10140000B7027AC08091B70219C08091B702886094
:10141000F6CF8091B80214C08091B80282606AC091
:101420008091B7028062EBCF8091B7028064E7CFF2
:101430000E946E238091B7028068E1CF8460DFCF85
:10144000816058C08091B7028E7FD9CF8091B80259
:10145000877F50C08091B7028D7FD1CF8091B70236
:101460001CC08091B702877FCACF8091B8021AC092
:101470008091B8028D7F3EC08091B7028F7EBFCF32
:101480008091B7028F7DBBCF0E946E238091B702FF
:101490008F77B5CF8091B702877F8B7FB0CF809158
:1014A000B8028D7F8E7F26C08091B802982F9095CC
:1014B00091708E7F892B90FB81F91CC00E946E2356
:1014C0008091B70287FB222720F991E0922790FBB9
:1014D00087F995CF61E08EE090E00E94CE270CC0A6
:1014E0008091B70284FB222720F991E0922790FB9C
:1014F00084F985CF8093B8026091B7021091B80249
:1015000084E090E00E94CE27612F82E290E00E946A
:10151000CE270E946E238EC00631FCE51F0721F501
:1015200080918B028A7A91E009F490E090934002D6
:10153000882311F065E301C069E281E492E00E9432
:10154000B71F0FC00631FCE51F0709F05CC0809192
:101550004002882309F4EFC265E381E492E00E942F
:10156000AA1F0E94D01166C00B35EDE51E0709F4D5
:1015700044C0D8F401302CE5120701F10F3D8CE591
:10158000180779F101159CE5190709F078C00E9448
:101590006E238FEF94E3ECE081509040E040E1F760
:1015A00000C000000E94111F45C00D35EDE51E076B
:1015B000E1F028F1083A1D45B1F061C08091800347
:1015C000982F9095917090FB80F9809380039923D8
:1015D00019F080E991E002C08EE791E00E943207A5
:1015E00029C00E945B110E94D4078091B80282FB3F
:1015F000882780F991E0892703C081E001C080E05D
:101600000E9462123CC080918B0282720C3CFCE50D
:101610001F0709F453C300F1013DFCE51F0709F45E
:1016200061C308F4AFC2053D8CE5180709F45DC33A
:1016300008F0BCC280918102877009F45BC3F70196
:101640008281882309F456C38091B80282FF52C375
:1016500082E00E9445124EC3073C9CE5190709F43D
:1016600019C308F079C2043CFCE51F0709F408C35C
:1016700008F063C2033C8CE5180709F4A2C2F70125
:10168000828100811181882349F0C8010E945F2274
:10169000D82E682FC8010E94D32204C0C8010E941E
:1016A000A022D82EB8018D2D0E94AA0F0E94C30F30
:1016B0008C01982EF701D280A580A2949FE0A922E8
:1016C000809181028770B9F0DD20A9F0812F807FA1
:1016D000803421F080E2800F883068F08091B80279
:1016E00082FF09C082E00E944512809181028770CA
:1016F000CC24C3948111C12CB12EB2948FE0B822B6
:101700008B2D90E08C30910508F0E7C1FC01EA5A7E
:10171000FF4F0C942228812F807F1F70882311F0A7
:101720001295107FDD20B9F0112309F4C4C180E2C5
:10173000800F883010F0911006C080918B02182B1A
:1017400010938B0205C080918A02182B10938A0295
:101750000E94D011B0C1802F0E948B23112309F465
:10176000BCC1005E083078F1992069F11095809134
:101770008A02182310938A0229C0812F807F1F704C
:10178000803211F01295107F992021F0F1E09F1620
:10179000D9F149C08091B80282FD1BC0DD2069F0FB
:1017A000112339F080918B02182B10938B020E9429
:1017B000D01180E00E94E42390C180E00E948B233E
:1017C000112309F48AC1812F0E94C9110E94D011EE
:1017D00084C1DD2081F080918C02AA2051F021E0AB
:1017E000A21207C0182B181709F477C110938C02A6
:1017F00074C1812B10C0AA2021F081E0A81609F441
:101800006CC10E94C31127C0DD2041F095E09A15FC
:1018100008F463C1812F0E9481235FC1E4E0EA15CF
:1018200008F45BC118C0DD2049F0AA2099F3F70144
:10183000858180FF40C18F708583ECCFAA2059F04D
:10184000093309F047C1FFEF27EE83E0F150204054
:101850008040E1F73DC1812F0E947A233EC1812F54
:1018600086958695837019F0813059F036C1DD2058
:1018700019F0C801937002C080E090E00E94E71F59
:1018800032C1DD2019F0C801937002C080E090E001
:101890000E94D11F28C1812F837009F041C0D1104F
:1018A00020C1302F329536953770330F330F802F8C
:1018B0008F7090E0032E02C0880F991F0A94E2F700
:1018C00004FF0BC04FE050E002C0440F551F3A9593
:1018D000E2F79A012095309502C020E030E016959D
:1018E00016951370123099F068F440918D02509162
:1018F0008E02113029F0822B932B8423952304C070
:10190000842B952B822B932B0E943023EAC0822BB1
:10191000932B20918D0230918E0282279327F4CF52
:10192000DD2019F0812F817001C08695882309F48C
:10193000D8C0302F329536953770330F330F802F44
:101940008F7090E0032E02C0880F991F0A94E2F76F
:1019500004FF0BC04FE050E002C0440F551F3A9502
:10196000E2F79A012095309502C020E030E016950C
:1019700016951370123079F0B8F44091B502509179
:10198000B602113029F0822B932B842395230EC0AD
:10199000842B952B09C0822B932B2091B50230917B
:1019A000B6028227932702C0822B932B0E94072323
:1019B00098C01F70DD2039F0812F0E942023802FD6
:1019C0000E9481238EC0802F0E947A23812F0E9443
:1019D0000E2387C0802F92EF991699F1991538F050
:1019E000E0EF9E1659F0F1EF9F1631F160C023EF42
:1019F000921671F194EF9916D9F059C0DD2099F043
:101A0000E4E0EA1508F469C01F7181E090E002C0CB
:101A1000880F991F1A95E2F72091B5023091B6020E
:101A20008227932722C0F5E0FA1508F456C0ECCFC0
:101A30008091B80282FD1CC0DD2029F0812F8F71BA
:101A400029C0DD20D9F3812F8F710E940E2345C05C
:101A5000DD2049F01F7181E090E002C0880F991FDE
:101A60001A95E2F702C080E090E00E94072335C09B
:101A7000DD2099F01F71812F0E9420238091B802F0
:101A800082FF07C028E0129FC00111248360809369
:101A90008102812F0E94202320C081E00E944512F4
:101AA00081E08A15D0F482E00E94451216C0DD2044
:101AB00021F0AA2019F2802F7DCEAA2021F28933AD
:101AC00049F49FEFE7EEF3E09150E040F040E1F79A
:101AD00000C00000802F0E948B2388EF8B0D843084
:101AE00010F40E94FD1FCC20A9F08091810280FD9E
:101AF00011C0F70112828595859585950E94202356
:101B0000C7010E94870880918102859585958595FA
:101B10000E940E2385E0F701DE01119601900D92DF
:101B20008A95E1F709811A81C8010E94A022B801B3
:101B30000E94AA0FDFC069E210CD053C9CE51907A1
:101B400009F4A3C0063CECE51E0709F098CD4AE174
:101B500057E264E277E2BBC0093CFCE51F0709F4E9
:101B6000A3C008F49CC00A3C9CE5190709F4A1C075
:101B70000B3CECE51E0709F082CD43EF56E266EE22
:101B800076E2A5C00E3C9CE5190709F4A3C008F451
:101B90009AC00F3CFCE51F0709F4A1C0003D2CE5ED
:101BA000120709F06CCD68E086E0A1C0063DECE5C7
:101BB0001E0709F43FCD0E35FDE51F0709F43ACDA8
:101BC0005ECD8091800380FF10C080917A03809564
:101BD00081701F928F9387E491E09F938F930E946F
:101BE000CB070F900F900F900F9080917A0380FF9A
:101BF0002EC08E7F80937A0360917A0370917B036D
:101C000080917C0390917D030E9434258091800314
:101C100080FF0FC080917A0381701F928F9388EDAF
:101C200090E09F938F930E94CB070F900F900F909F
:101C30000F900E9443222FEF80E792E021508040D6
:101C40009040E1F700C000000E94DA24F3CC8160EC
:101C500080937A038091800380FF0DC01F9281E002
:101C60008F9380E191E09F938F930E94CB070F9019
:101C70000F900F900F9080917A0361E086952CC0B1
:101C800045EA57E26FEA77E222C04FEA57E265EA97
:101C900077E21DC044E257E26AE177E218C040E013
:101CA00057E26DE077E213C04DE057E260E077E283
:101CB0000EC046EE56E263EF76E209C047E455E215
:101CC00069E575E204C049E555E267E475E20E9402
:101CD0003C22B0CC61E081E00E942E27ABCC65E0D5
:101CE00082E005C06EE089E002C068E18FE00E94FA
:101CF0002822A0CC2A96EBE00C944B288295982FB2
:101D0000937344E0949F900111248C7C8695869572
:101D1000282B822F8575880F2A7A2695822B089585
:101D20009091B70292FF0DC0282F2871283019F426
:101D3000877F846006C0282F2471243011F48B7FA4
:101D4000886093FF0DC0282F2871283119F4877EF1
:101D5000846106C0282F2471243111F48B7E8861A0
:101D60002091B80220FF0DC0382F3871383019F497
:101D7000877F816006C0382F3171313011F48E7F3A
:101D8000886021FF0DC0282F2871283119F4877E23
:101D9000816106C0282F2171213111F48E7E886166
:101DA00094FD877E0895F894E82FE295EF70F0E0B7
:101DB00031A1282F2F7081E090E001C0880F2A9573
:101DC000EAF7982F9095932391A392A1892B82A350
:101DD00078940895AAE0B0E0E0EFFEE00C942A28A1
:101DE000AE014F5F5F4F7A018AE0FA0111928A9546
:101DF000E9F708E511E06A019DE5492E91E0592EC9
:101E000066246394712C3CE6832E31E0932EF80116
:101E100080818F3F09F446C0F894E82FE295EF7077
:101E2000F0E021A18F70A30102C0440F551F8A95D5
:101E3000E2F7CA01922F982B91A392A18095892352
:101E400082A3789400C0EDE5F1E021E030E0A12C20
:101E5000B12C41914F3F89F0A42FA295AF70B0E013
:101E600090968C9190E04F7002C0959587954A9519
:101E7000E2F780FD02C0C90102C080E090E0A82A1C
:101E8000B92A220F331F8E169F0619F7F801808199
:101E90008F3F11F00E94D30EF0EAFA95F1F7F601A8
:101EA000B182A0820F5F1F4FF2E0CF0ED11C40160F
:101EB000510609F0ACCF4AE050E0B7018BEA92E05E
:101EC0000E946C28892B89F08AE0F701ABEAB2E026
:101ED00001900D928A95E1F781E0809391020E9432
:101EE000751F9093900280938F02809191028111CF
:101EF00002C080E02BC020918F02309190024FB73A
:101F0000F89480918B0390918C03A0918D03B091F4
:101F10008E034FBF821B930B059758F34AE050E0A6
:101F20006BEA72E08EEB92E00E946C28892B59F0EC
:101F30008AE0EBEAF2E0AEEBB2E001900D928A9516
:101F4000E1F781E001C080E0109291022A96E0E181
:101F50000C9446287530A0F46F3090F49BE4899F70
:101F6000F00111248FE0789FE00DF11D1124E60FA0
:101F7000F11DEE0FFF1FE053FE4F859194910895E0
:101F800080E090E00895CF93DF938238910569F166
:101F9000B0F48133910509F477C048F48932910592
:101FA00009F469C08A32910509F473C092C085337F
:101FB000910509F45BC089339105B9F08AC0833E6D
:101FC000910591F138F4803E9105D1F0823E910562
:101FD00031F17FC0863E9105D9F1873E9105E9F147
:101FE000843E910509F075C028C02091B70220FDFC
:101FF0005BC021FD59C02091B80223FD61C069C0BA
:102000008091B70280FD4AC08091B80280FF4CC029
:102010008091B70284FD39C183EE90E038C1809190
:10202000B70282FF3EC0F4CF8091B70282FD39C073
:102030008091B80280FD38C0EBCF8091B80281FF5B
:1020400039C08091B70284FD20C187EE90E01FC1A6
:102050008091B70283FF2BC0F4CF8091B70283FD3C
:1020600026C08091B80281FD25C0EBCF8091B702D8
:1020700085FD26C022C08091B70285FD1EC08091DB
:10208000B80283FF1DC00AC08091B70286FD1BC045
:102090001DC08091B70286FD19C015C089E390E08C
:1020A000F6C082EE90E0F3C080EE90E0F0C086EEE5
:1020B00090E0EDC084EE90E0EAC085E390E0E7C0F8
:1020C00089E290E0E4C08AE290E0E1C081E390E040
:1020D000DEC0811532E5930708F05FC0811541E548
:1020E000940728F0982F8827816F906AD0C0883E87
:1020F000910568F5803E910508F0C9C0883A9105C0
:10210000B8F4853A910548F0855AE82FF0E0E85E8A
:10211000FE4F808190E09064BAC08130910509F44F
:10212000B1C008F4B2C08430910508F4AEC0AFC0AD
:102130008F3B910508F0A9C0885AE82FF0E0EE0F18
:10214000FF1FE55EFE4F808191819464A0C08115E0
:1021500020E59207A0F0AC014370552721E030E064
:1021600002C0220F331F4A95E2F78695869540E21A
:10217000849FC0011124822B932B9D6888C08115F8
:1021800030E4930718F09F70906A81C09C013A95E3
:1021900021153F4108F47BC078C0EC01C11586E5EC
:1021A000D807E8F5C11525E5D20748F08C2F0E9425
:1021B000900E8F7190E0982F8827906268C0C115AB
:1021C00034E5D30728F09C2F8827846F906A5FC07E
:1021D000AE01437055272C2F26952695C115D34562
:1021E00078F481E090E002C0880F991F4A95E2F7E9
:1021F00040E2249F90011124822B932B9C6847C0BE
:1022000081E090E002C0880F991F4A95E2F740E212
:10221000249F90011124822B932B9A6838C0C115FA
:102220002AE5D207F8F4C11539E5D30790F08C2FD1
:102230008F700E94900E94E0D695C7959A95E1F71D
:10224000CF70D0E0DC2FCC27D0699E01282BC901AC
:102250001EC0C11548E5D407C0F09C2F8827806FA9
:10226000906A15C0CE0190568115904270F48D2F62
:102270008F710E94900E282F2F71CE0199279062A6
:10228000922B05C081E090E002C080E090E0DF91F9
:10229000CF910895CF9384E090E00E94BA27C82F91
:1022A00082E290E00E94BA272C2F30E0A901582B3F
:1022B000CA01CF91089568EE7EEF80E090E00E9421
:1022C000EC2760E082E090E00E94CE2760E083E0AF
:1022D00090E00E94CE2710928E0210928D0260E054
:1022E00084E090E00E94CE2764E082E290E00E94C9
:1022F000CE2760E085E090E00E94CE2760E086E097
:1023000090E00E94CE276FEF87E090E00E94CE27FA
:1023100040E050E0BA0188E090E00E94E02760E0F1
:102320008DE090E00E94CE2740E050E0BA0188E1C5
:1023300090E00E94E02760E087E190E00E94CE27D5
:1023400040E050E0BA018CE190E00E94E02760E0BC
:1023500070E080E290E00E94EC2740E050E0BA019B
:1023600088E190E00E94E02740E050E0BA018FE071
:1023700090E00E94E02740E050E0BA0183E190E065
:102380000E94E027089580918C02811110928C02A6
:102390000895809590918B02892380938B020895F4
:1023A000EF92FF920F931F93CF9390918B028091A6
:1023B0008A02982B9093410280918C02882389F0A5
:1023C000892B80934102E3E4F2E097E080E09150B2
:1023D00029F021912223D9F38F5FF9CF81110E9437
:1023E000C31148E050E062E872E081E492E00E94AC
:1023F0006C28892B09F443C088E0E1E4F2E0A2E80C
:10240000B2E001900D928A95E1F7E0918603F09198
:1024100087033097A1F10280F381E02D81E492E0FF
:1024200009958091800382FF2AC080FF04C08EEB53
:1024300091E00E94320701E412E0C8E088EBE82E48
:1024400081E0F82E8091800380FF0CC0F80180812C
:102450001F928F93FF92EF920E94CB070F900F90E5
:102460000F900F90C1500F5F1F4FC111EBCF8091A4
:10247000800380FF04C086EB91E00E943207CF9179
:102480001F910F91FF90EF90089520918102809508
:10249000822380938102982F977099F430E0482F1F
:1024A000082E000C550B2417350759F09091B802EF
:1024B00092FF07C08595859585950E940E23109201
:1024C00081020895CF93DF93C091B802C2FB992790
:1024D00090F9981719F1D82F80FBC2F9C093B80270
:1024E0006091B70284E090E00E94CE276C2F82E2D8
:1024F00090E00E94CE2782E00E94451280918003E6
:1025000080FF0CC01F92DF9381EA91E09F938F932D
:102510000E94CB070F900F900F900F90DF91CF91FB
:1025200008958091800290914F02891719F08F5F72
:102530008770FBCF08950F931F93CF93DF93809104
:102540004E0282958F7009F05AC080914B02882309
:1025500009F455C08091800210914F0260914902A8
:1025600070914A02C0914C02D0914D0291E06F3FB0
:1025700009F090E0292F06E0811709F440C0209768
:1025800021F07F3F21F030E003C031E001C0322F65
:1025900090E030FD31C0089FF001099FF00D11243B
:1025A000DF01A05BBD4F11963C911197371324C0FA
:1025B0003C91361321C012963C91129731111CC0E8
:1025C00013964D915C9114974C1B5D0B483C510543
:1025D00098F480914E028F70806180934E02EB5A86
:1025E000FD4F80818F708061808389E492E00E943A
:1025F00087080E94911203C001968770BDCFDF91BA
:10260000CF911F910F910895A1E1B0E0EAE0F3E1CD
:102610000C942F288C0185E0F801DE011D960190B5
:102620000D928A95E1F7F801E2809091490260915C
:102630004A0240914C0250914D024115510531F032
:102640006F3F31F481E09F3F19F403C081E001C086
:1026500080E0F82FF1709F2E80FD1BC1F8013081C2
:102660002181C380D48089E4A82E82E0B82EF09026
:102670004B02F601E41BF50BFF2009F4C7C0809163
:102680004E02E83CF10508F092C0482F407F09F067
:1026900051C0621311C093130FC0FE2CE1100CC087
:1026A0008F70806180934E02C5010E9487088091DF
:1026B0004E02F80185832AC1C114D10431F02F3FA5
:1026C00031F481E03F3F19F403C081E001C080E0B4
:1026D00080FD03C081E08E2502C080E090E0F82FED
:1026E000F170FF2E80FF1CC08091800240914F024C
:1026F00056E0841709F4E8C090E0589FF001599F14
:10270000F00D1124E05BFD4F6181261306C060814E
:10271000631303C06281E61203C001968770E9CF9C
:10272000FE2CEE2009F4F2C080914E02816080936D
:102730004E0249C0621306C0931304C0E11002C0E8
:10274000F80186C0C8010E943723882351F1EE208A
:1027500041F120914E02822F82958F7090E0029776
:1027600074F08091490290914A0298878F8319866C
:10277000DB86CA862C87CE0107960E94870886E0F2
:10278000F801A9E4B2E001900D928A95E1F70E9468
:102790009B120AC06217C9F0C8010E943723811139
:1027A0001EC0C8010E948708FF24F394AFC0482FC1
:1027B000407F81F789E492E00E94870886E0F50176
:1027C00011928A95E9F7F12CA1C09313E5CFE1109E
:1027D000E3CFF8018583C8010E94870854C0EE202A
:1027E00001F320914E02822F82958F7090E0029724
:1027F00034F28091490290914A029A8389831B8224
:10280000DD82CC822E83CE010196B7CFE83CF10564
:10281000D0F5FE2CEE2029F2621327C0931325C0B9
:1028200020914E0220FD18C0822F82958F70482F74
:1028300050E04115510581F0F80125834F305105D5
:1028400041F08F5F982F9295907F822F8F70892B08
:102850008583C8010E94870886E0F801A9E4B2E0F8
:1028600001900D928A95E1F751C0C8010E9437236B
:10287000811185CF80914E02816080934E02C80104
:102880000E94870843C086E0F50111928A95E9F716
:102890003DC0EE2009F485CFC8010E943723F82EF1
:1028A000882309F47ECF86E0F801A9E4B2E0019024
:1028B0000D928A95E1F78091490290914A020E9417
:1028C00093220E949B1222C03D872E878D859E8574
:1028D0000E949322292F22952F70223028F49F7076
:1028E00039F0811105C00BC0243028F49F7049F4E1
:1028F000805E883020F0C8010E9487089F2CF92C48
:1029000005C0F8019581907F99F7F9CF8F2D6196D9
:10291000EBE00C944B28EF92FF920F931F93CF9311
:10292000DF937C018B010E942C1E811119C0E701ED
:1029300001151105A1F08091E80085FD0AC0809184
:10294000E8008E778093E8000E942C1E882381F394
:1029500007C089918093F10001501109E9CF80E00F
:10296000CDB7DEB7E6E00C945028AAE2B0E0EBEB7E
:10297000F4E10C943728E3EAF2E08091F1008193CE
:1029800042E0EB3AF407C9F78091A402833009F4DE
:1029900061C030F4813071F0823009F49BC0B2C064
:1029A0008A3009F487C08B3009F46CC0893009F093
:1029B000A9C020C08091A302813A09F0A3C08091F0
:1029C000E800877F8093E8008091A7029091A80299
:1029D000892B21F468E087E992E003C060E080E0A1
:1029E00090E070E00E94B31E8091E8008B778093A6
:1029F000E80088C08091A302813209F083C08091F1
:102A0000A7029091A802029708F07CC08091E8008C
:102A1000877F8093E8008091E80082FD05C0809167
:102A2000A1028111F8CF6EC02091F3008091F200D5
:102A300090E0922B029731F48091F100813011F0F7
:102A4000863021F48091F100809396028091E80015
:102A50008B7754C08091A302813A09F053C08091D2
:102A6000A7029091A802892B09F04CC08091E80040
:102A7000877F8093E8008091E80080FFFCCF809101
:102A8000000137C08091A3028132E1F58091A70255
:102A90009091A802892BB1F58091E800877F8093FF
:102AA000E8000E945F1E8091A502809300010E94B1
:102AB0006E2328C08091A302813221F58091E80025
:102AC000877F8093E8000E945F1E8091A60280931A
:102AD000950218C08091A302813AA1F48091E80088
:102AE000877F8093E8008091E80080FFFCCF809191
:102AF00095028093F1008091E8008E778093E80042
:102B00000E945F1E8091E80083FFDAC18091A302DA
:102B10009091A402492F50E04A30510508F0D0C1ED
:102B2000FA01EE59FF4F0C942228803821F08238A8
:102B300009F0C6C108C080919F029091A00299231C
:102B400089F082600FC08091A7028F70873008F0F3
:102B5000B7C18093E9008091EB0085FB882780F95D
:102B60001092E9009091E800977F9093E80080939D
:102B7000F1001092F10070C1282F2D7F09F0A0C143
:102B8000882319F0823061F09BC18091A5028130C9
:102B900009F096C1933009F080E08093A0022EC026
:102BA0008091A50281112AC08091A7028F702FEF1A
:102BB000280F263008F084C18093E9002091EB00B3
:102BC00020FF1CC0933021F48091EB00806214C080
:102BD0009091EB0090619093EB0021E030E0A9012F
:102BE00002C0440F551F8A95E2F74093EA00109205
:102BF000EA008091EB0088608093EB001092E9007E
:102C00008091E800877F8093E8000E945F1E58C192
:102C1000811156C11091A5021F778091E300807841
:102C2000812B8093E3008091E800877F8093E80008
:102C30000E945F1E8091E80080FFFCCF8091E3003E
:102C400080688093E300111102C082E001C083E03C
:102C50008093A10235C18058823008F031C12091A3
:102C6000A5023091A6022C3D53E0350779F583E0AB
:102C70008A838AE289834FB7F894DE01139620E0B5
:102C80003EE051E2E32FF0E050935700E49120FF43
:102C900003C0E295EF703F5FEF708E2F90E0EA3057
:102CA00010F0C79601C0C0968D939D932F5F24317D
:102CB00049F74FBF8091E800877F8093E8006AE280
:102CC00070E0CE0101960E94B31EB5C08091A702AC
:102CD0009091A802432F552743305105A9F068F47D
:102CE0004130510509F4FBC04230510509F0E8C0FC
:102CF0008BE590E0EAE3F4E04BC04132510529F165
:102D00004232510589F1DCC0C90199278130910512
:102D1000A1F058F0029709F0D3C0E7EAF4E0E4919B
:102D20008E2F90E0E7EAF4E030C0E5EDF4E0E491C6
:102D30008E2F90E0E5EDF4E028C0EFEBF4E0E491B5
:102D40008E2F90E0EFEBF4E020C08330910508F087
:102D5000B7C0880F991FFC01EE5AFE4F0190F08119
:102D6000E02D89E090E014C08330910508F0A8C000
:102D7000FC01EE0FFF1FE45BFE4F0190F081E02DA0
:102D8000DC01A75BBE4F8C9190E0009709F498C0DE
:102D90002091E800277F2093E8002091A90230913C
:102DA000AA028217930708F49C0140E0211531051F
:102DB00089F18091A102882309F43DC08530D9F1C1
:102DC0008091E80083FD37C08091E80082FD2FC02C
:102DD0008091E80080FFEACF4091F3008091F200FB
:102DE00090E0942B2115310559F08830910540F47D
:102DF00044914093F1003196215031090196F2CF70
:102E000041E0089709F040E08091E8008E778093D8
:102E1000E800CCCF4111CDCF0AC08091A102882318
:102E200051F0853041F08091E80083FD04C080912D
:102E3000E80082FFF2CF8091E8008B778093E80072
:102E40003FC08038E9F58091E800877F8093E800F3
:102E50008091A2028093F1008091E8008E77D3CE1A
:102E600081112EC08091A5029091A6029927029708
:102E70003CF58091E800877F8093E8001091A502DF
:102E80001093A2020E945F1E111106C08091E30000
:102E900087FD02C081E001C084E08093A10242E08E
:102EA00061EC81E00E947E1E42E261EC82E00E94C1
:102EB0007E1E42E261EC83E00E947E1E8091A102B0
:102EC0008091E80083FF10C08091E800877F8093A5
:102ED000E8008091EB0080628093EB0005C082E106
:102EE00090E0E5E9F4E054CFAA96E3E00C9453288F
:102EF0001F920F920FB60F9211242F933F934F936F
:102F00005F936F937F938F939F93AF93BF93CF9371
:102F1000DF93EF93FF93C091E900CF708091EC00B5
:102F2000D82FD17080FDD0E81092E9008091F00098
:102F3000877F8093F00078940E94B5141092E90086
:102F40008091F00088608093F000CD2BCF70C0930B
:102F5000E900FF91EF91DF91CF91BF91AF919F91E8
:102F60008F917F916F915F914F913F912F910F9032
:102F70000FBE0F901F901895E8EDF0E080818E7FD6
:102F800080831092E2001092DA001092E100A0EE2D
:102F9000B0E08C9181608C9380818F77808319BCA5
:102FA000A7EDB0E08C918E7F8C9380818F7E8083A3
:102FB000109294020895A0E0B0E0E1EEF7E10C94E5
:102FC0003228C8EDD0E088818F7E8883E7EDF0E07D
:102FD00080818160808384E082BF81E0809394025D
:102FE00088818E7F888302EE10E0F80110821092B3
:102FF000DA0081EEC82ED12CF601108288818F77FD
:10300000888388818068888388818F7D888319BCC4
:103010001092A1021092A2021092A00210929F029E
:1030200090EEE92EF12CF70180818B7F80838881DF
:103030008160888342E060E080E00E947E1EF601AD
:1030400080818E7F8083F801808181608083808190
:1030500088608083F70180818E7F80838881806192
:103060008883CDB7DEB7E8E00C944E281F920F920C
:103070000FB60F9211242F933F934F935F936F934B
:103080007F938F939F93AF93BF93EF93FF93809121
:10309000E10082FF49C08091E20082FF45C080913B
:1030A000E1008B7F8093E100209193022F5F822FBC
:1030B00062E30E940228992319F02093930234C0FE
:1030C0001092930280919202882371F18091A10263
:1030D000843041F58091E9008F702091EC00922FAF
:1030E000917020FD90E8892B93E09093E9009091F6
:1030F000EB0090FF14C09091EE0097FF10C09091EC
:10310000E80095FF03C01092F100F9CF9091E8001C
:1031100090FF05C09091E8009E779093E8008F7033
:103120008093E900109292028091DA0080FF32C011
:103130008091D80080FF2EC08091DA008E7F80932E
:10314000DA008091D90080FF1CC080E189BD82E156
:1031500089BD09B400FEFDCF81E08093A10286E223
:1031600094E00E94320780919402811113C00E9462
:10317000BC170E94DB178091E20084608093E2001C
:1031800009C019BC1092A1028AE294E00E943207A1
:10319000109294028091E10080FF1BC08091E200B8
:1031A00080FF17C08091E2008E7F8093E2008091C3
:1031B000E20080618093E2008091D8008062809379
:1031C000D80019BC85E08093A1028EE294E00E94B1
:1031D00032078091E10084FF34C08091E20084FFD7
:1031E00030C080E189BD82E189BD09B400FEFDCF18
:1031F0008091D8008F7D8093D8008091E1008F7EF0
:103200008093E1008091E2008F7E8093E2008091C4
:10321000E20081608093E2008091A202882311F095
:1032200084E007C08091E30087FD02C081E001C017
:1032300083E08093A10282E394E00E9432078091B0
:10324000A1028091E10083FF2BC08091E20083FF07
:1032500027C08091E100877F8093E10082E0809326
:10326000A1021092A2028091E1008E7F8093E10082
:103270008091E2008E7F8093E2008091E200806185
:103280008093E20042E060E080E00E947E1E809138
:10329000F00088608093F00086E394E00E9432079B
:1032A000FF91EF91BF91AF919F918F917F916F911E
:1032B0005F914F913F912F910F900FBE0F901F90F4
:1032C0001895AAE0B0E0E7E6F9E10C94282885B764
:1032D000806885BF85B7806885BF84B7877F84BFD6
:1032E0000FB6F894A8958091600088618093600083
:1032F000109260000FBE90E080E80FB6F8948093C3
:103300006100909361000FBE8FEF9CE190933F02AC
:1033100080933E020E94BC170E94DB178091E2005E
:1033200084608093E20078948091A1028823A1F0C8
:103330001091E9001F709091EC00892F817090FD31
:1033400080E8182B1092E9008091E80083FD0E942C
:10335000B5141F701093E90082E084BD93E095BD21
:103360009AEF97BD80936E0008E511E0D8018D912A
:103370008D018F3F11F00E94D30EB1E00D351B0778
:10338000A9F70DE511E0F80181918F018F3F11F050
:103390000E94D30EF1E00C361F07A9F78AE0EEEB8E
:1033A000F2E0DF01282F1D922A95E9F7EBEAF2E01F
:1033B000DF011D928A95E9F780E090E00E94C8271E
:1033C000883E9E4F11F00E945B1182E090E00E94C7
:1033D000BA27809380030E944A119093B802809389
:1033E000B7020E94EA0EEFE3FCE93197F1F700C063
:1033F00000000E94EA0E8091BE0280FF08C06FEFBD
:103400007FEF80E090E00E94EC270E94111F83E094
:1034100090E00E94BA2790E00E9430238091B90288
:103420008111E0C08091800380FF08C08BE196E0AD
:103430009F938F930E94CB070F900F9080918003F2
:1034400080FF08C085E096E09F938F930E94CB0792
:103450000F900F9080E090E00E94C827883E9E4F1A
:1034600081F08091800380FF08C08DED95E09F93EF
:103470008F930E94CB070F900F900E945B110E94C8
:103480006B2588E090E00E94C22760937A037093D6
:103490007B0380937C0390937D036E7FD1F48091B6
:1034A000800380FF08C084E995E09F938F930E947A
:1034B000CB070F900F900E946B2588E090E00E9450
:1034C000C22760937A0370937B0380937C0390936D
:1034D0007D030E9421258091800380FF08C08BE737
:1034E00095E09F938F930E94CB070F900F90809150
:1034F000800380FF0FC080917A0381701F928F93A9
:103500008EE595E09F938F930E94CB070F900F90CD
:103510000F900F908091800380FF0FC080917A03FD
:1035200086951F928F9383E495E09F938F930E94DB
:10353000CB070F900F900F900F908091800380FF2A
:103540000EC080917B031F928F9389E295E09F9339
:103550008F930E94CB070F900F900F900F90809148
:10356000800380FF0EC080917C031F928F938FE0B9
:1035700095E09F938F930E94CB070F900F900F9031
:103580000F908091800380FF0EC080917D031F9279
:103590008F9385EF94E09F938F930E94CB070F90BA
:1035A0000F900F900F908091800380FF0EC080914C
:1035B0007E031F928F9389ED94E09F938F930E94D7
:1035C000CB070F900F900F900F901092D402809124
:1035D0007A0380FF04C060E086950E942E2781E078
:1035E0008093B9020E94882720E04FEF6FEF80E0C0
:1035F0000E941F2660E083E00E942E2781E091E078
:103600009093870380938603B8EC4B2EB2E05B2E39
:103610001BE7612E16E0712E8091A102853009F022
:1036200084C08CE696E00E943207A0E4FA2EEE24D5
:10363000E39400E112E18091A102853009F068C0B5
:103640008091A102843009F451C00E9443228091EC
:10365000BB02811128C0E092BB0280917A03982FAF
:1036600091709093BA028E7F80937A038091800349
:1036700080FF0CC01F921F9242E356E05F934F936E
:103680000E94CB070F900F900F900F900E94432243
:103690009FEFA0E7B2E09150A040B040E1F700C03A
:1036A00000000E94DA2410928A03E8E1F0E00FB6ED
:1036B000F894A895E09360000FBEF092600083B785
:1036C000817F846083BF83B7816083BF789488954E
:1036D00083B78E7F83BF0FB6F894A8958091600062
:1036E000886180936000109260000FBE8091A002FC
:1036F000882309F4A0CF0E94EA0EEEEBF2E081915C
:103700009191892B09F05FC14E165F06C1F793CFE7
:103710000E946E230E94FD1F1092BB028091BA028C
:1037200081110E9488270E94B8240E94EA0EE8ECCA
:10373000EE2EE2E0FE2EFEEBAF2EF2E0BF2E22EDEB
:1037400032E0D501F701419151918D919D918427EE
:1037500095272E173F0719F0892BA9F322C0892B33
:1037600001F50E94751F8C018091BC029091BD02F1
:103770000817190709F498C08FEF89838A831B8281
:103780000E94751F8160782F9D838C8349815A81A7
:103790006B818D810E94EA071093BD020093BC02E9
:1037A00083C08091800381FD02C0312C41C080E83C
:1037B00096E00E9432076EEBC62E62E0D62E00E045
:1037C00010E072E7872E76E0972E1F930F937F927B
:1037D0006F920E94CB0788E796E00E943207D601DD
:1037E0008C9111962C90B2E0CB0ED11C0E947E0ED3
:1037F000382E822D0E947E0E232D30E0322F22277C
:10380000F901E82BCF019F938F939F928F920E9493
:10381000CB0780E796E00E9432070F5F1F4F0FB67D
:10382000F894DEBF0FBECDBF0530110571F6BDCFD8
:10383000D5018D909D905D01F701C080D180C82495
:10384000D924C114D10439F1212C01E010E0C601C2
:1038500080239123892BB1F02E823F8221E0C40185
:1038600080239123892B09F420E028870E94751F6B
:103870008160782F9A8789874E815F8168858A85E4
:103880000E94EA072394000F111FFFE02F12DFCFE1
:10389000D7018D929C923394B2E0EB0EF11CE5E0DF
:1038A0003E12C6CF0E94691F8091D402882309F47A
:1038B0005BC08091D302E0917A03E695E81BE09328
:1038C000BD03823059F4F0E0E356F94FE4910E2F36
:1038D00010E038E1E32E3EE1F32E21C0863059F4AA
:1038E000F0E0E656F94FE4910E2F10E028E0E22ECA
:1038F0002EE1F22E14C0893061F4E695F0E0E9562D
:10390000F94FE4910E2F10E09EEDE92E9DE1F92E86
:1039100006C000ED17E08AEFE82E8CE1F82E8091CA
:10392000BE03882361F01092BE030E94751F90931E
:10393000BC038093BB031092C0031092BF030E948C
:10394000751FE091BB03F091BC038E1B9F0B8F3F53
:103950009F4750F40E0F1F1F1093BC030093BB032F
:103960008BEB93E0F70109950E94FD1F182F8091C2
:10397000D202181709F450CE1093D2020E94691F88
:103980008091800382FF48CE80FF04C088EA96E0E1
:103990000E9432078091800380FF0CC01F921F930A
:1039A00083EA96E09F938F930E94CB070F900F902E
:1039B0000F900F908091800380FF2ECE81EA96E0D9
:1039C0000E94320729CE09BD19BD09B400FEFDCF02
:1039D0008091D8008F7D8093D8008091E000826034
:1039E0008093E0008091E00081FDFCCF0E946E2377
:1039F00022CE0895089508958091960208959FB764
:103A0000F894109292029FBF9091A102943009F015
:103A100057C09091E9009F703091EC00232F2170E6
:103A200030FD20E8922B23E02093E9002091EB0069
:103A300020FF43C02091EE0027FF3FC0209192035A
:103A4000222321F02091E80025FF37C01092920335
:103A500026E03091E80035FD15C03091A1023430E8
:103A600061F53091EB0035FD28C0215021F481E053
:103A70008093920322C0EFE9FFE03197F1F700C095
:103A80000000E7CF8093F1008091E80085FD0AC037
:103A90008091E80080FFFCCF8091E8008E778093D2
:103AA000E80006C08FB7F89421E0209392028FBF00
:103AB0009F709093E90080E008959F709093E900D3
:103AC0008FEF089580938F03709391036093900319
:103AD0008091A102843001F582E08093E9008FEFAC
:103AE0009091E800815095FD06C095ED9A95F1F70B
:103AF00000008111F5CF8091E80085FF0DC040E006
:103B000050E063E070E08FE893E00E948B148091B6
:103B1000E8008E778093E8000895BC0184E00E945D
:103B2000621D0895BC0183E00E94621D0895CF9339
:103B3000DF9321E02093E9002FEF3091E80021503E
:103B400035FD06C035ED3A95F1F700002111F5CFAE
:103B50002091E80025FF14C0EC0140E050E068E04F
:103B600070E00E948B148091E8008E778093E800CB
:103B700088E0FE01A7E9B2E001900D928A95E1F795
:103B8000DF91CF910895CF93C82F1F928F938FEF1E
:103B90009BE09F938F930E94CB0781E090E002C04F
:103BA000880F991FCA95E2F70E9430230E946E2366
:103BB0000F900F900F900F90CF910895EF92FF927A
:103BC0001F93CF93DF93EC0185EDE82E82E0F82E72
:103BD00010E08C81970140917D0360917C03810FFF
:103BE0000E947B251C5F83E0E80EF11C1C3D89F7D9
:103BF0000E94DA249A818C8190FF02C08F5F01C0FD
:103C000081508C83DF91CF911F91FF90EF900895A9
:103C1000CF93DF93EC01EAE7F3E0438162818C818B
:103C20000E9407268C818F5F8C83DF91CF9108954E
:103C3000CF93DF93EC01EC81F0E0E453F94F449132
:103C4000EAE7F3E0628181810E9407268C818F5F21
:103C50008C83DF91CF9108952091E4003091E500AD
:103C600095E64091EC00842F817040FF23C0809145
:103C7000E80080FD1DC08091A102882399F0853065
:103C800099F08091EB0085FD11C04091E4005091C6
:103C9000E5002417350729F3915011F09A01E1CF7F
:103CA00084E0089582E0089583E0089581E0089516
:103CB00080E008954091E80042FFDDCF08958091B3
:103CC000A30287FF11C08091E80082FD05C08091AA
:103CD000A1028111F8CF11C08091E8008B770BC051
:103CE0008091A102882349F08091E80080FFF8CFFD
:103CF0008091E8008E778093E8000895982F9730A0
:103D000068F59093E900981739F07091EC002091D4
:103D1000ED005091F00003C0242F762F50E021FDDC
:103D200002C09F5FECCF3091EB003E7F3093EB0001
:103D30003091ED003D7F3093ED003091EB0031602C
:103D40003093EB007093EC002093ED005093F00063
:103D50002091EE0027FDE5CF80E008958F708093DD
:103D6000E90081E008952091A9023091AA02261766
:103D7000370748F06115710539F42091E8002E7776
:103D80002093E80001C0B901FC0120E06115710534
:103D900079F18091A1028823F1F18530F1F18091D0
:103DA000E80083FD3CC08091E80082FD2EC0809138
:103DB000E80080FFEBCF2091F3008091F20090E0CB
:103DC000922B6115710551F08830910538F42191DD
:103DD0002093F100615071090196F3CF21E008971B
:103DE00009F020E08091E8008E778093E800CECF44
:103DF0002111CFCF0AC08091A102882361F08530C4
:103E000061F08091E80083FD0AC08091E80082FFA4
:103E1000F2CF80E0089582E0089583E0089581E084
:103E20000895F89481E08093E00080E28093D800C8
:103E3000E9ECF0E010828FE19EE40197F1F700C019
:103E400000001DBA109268001CBC10BE1FBA109270
:103E50007A0010926E0010926F0010927100109212
:103E600072001082ECEBF0E0108214B817B81AB8A8
:103E70001DB810BA108215B818B81BB81EB811BA00
:103E80000C94003F089578941F920F920FB60F92F2
:103E900011248F939F93AF93BF9380918B03909145
:103EA0008C03A0918D03B0918E030196A11DB11DCD
:103EB00080938B0390938C03A0938D03B0938E0318
:103EC000BF91AF919F918F910F900FBE0F901F9058
:103ED00018952FB7F89460918B0370918C038091A3
:103EE0008D0390918E032FBF08952FB7F894809182
:103EF0008B0390918C03A0918D03B0918E032FBF03
:103F000008951F920F920FB60F9211248F939F93D3
:103F1000AF93BF9380918A03811113C080918B036B
:103F200090918C03A0918D03B0918E034196A11DB9
:103F3000B11D80938B0390938C03A0938D03B0935A
:103F40008E03BF91AF919F918F910F900FBE0F90F5
:103F50001F9018959C012A5F3F4FFC014281461338
:103F600001C01282019682179307B9F708959C0148
:103F7000FC0132969FEF80E04191461789F09F3F08
:103F800019F4411101C0982F8F5F8630A9F79F3F28
:103F900039F0F901E90FF11D97FDFA956283089553
:103FA000089520918803309189032817390771F00B
:103FB0009093890380938803E0918603F0918703AF
:103FC000309721F00084F185E02D09950895209126
:103FD0008403309185032817390771F09093850386
:103FE00080938403E0918603F0918703309721F05A
:103FF0000680F781E02D09950895E0918603F09100
:104000008703309729F00190F081E02D09950895FC
:1040100080E00895EF92FF920F93CF93DF93C42F28
:10402000D22FFC0182818823B1F0409383030E9448
:10403000751F909382038093810380E28C0F8830F8
:1040400008F06FC0C77081E001C0880FCA95EAF719
:104050000E94812366C080918303481356C020913B
:104060008103309182034FB7F89480918B03909134
:104070008C03A0918D03B0918E034FBF821B930BD5
:10408000883C910508F041C0CD17C9F080E28C0F43
:10409000883040F4C77081E001C0880FCA95EAF704
:1040A0000E947A2380E28D0F883048F481E09D2FB2
:1040B000977001C0880F9A95EAF70E94812309330F
:1040C00019F0E12CF12C03C080E5E82EF12C802FB3
:1040D0000E94E423E114F10451F08FE99FE001977D
:1040E000F1F700C0000091E0E91AF108F3CF802F4A
:1040F0000E948B2380E28D0F883098F4D77081E086
:1041000001C0880FDA95EAF70AC080E28C0F883088
:1041100040F4C77081E001C0880FCA95EAF70E9499
:104120007A23DF91CF910F91FF90EF900895EF9256
:10413000FF920F931F93CF93DF938B3109F40DC13F
:1041400008F0A3C08B3009F4C6C008F081C08630E7
:1041500009F4C4C020F4853009F4D2C06EC18730A0
:1041600009F4E0C0883009F068C183E090E00E9463
:10417000BA271F928F9384E199E09F938F930E94B7
:10418000CB0782E090E00E94BA2783FB992790F941
:104190001F929F9382FB992790F91F929F9381FB17
:1041A000992790F91F929F93982F91701F929F9338
:1041B0001F928F938BEC98E09F938F930E94CB0775
:1041C0000E944A1193FB222720F91F922F9387FB0D
:1041D000222720F91F922F9386FB222720F91F9276
:1041E0002F9385FB222720F91F922F9384FB2227F0
:1041F00020F91F922F9383FB222720F91F922F93E0
:1042000082FB222720F91F922F9391FB222720F96E
:104210001F922F93292F21701F922F9381FB22270A
:1042200020F91F922F93282F21701F922F939F9375
:104230008F938CEC97E09F938F930E94CB078DB761
:104240009EB78A960FB6F8949EBF0FBE8DBF41C031
:10425000803109F4AAC020F48E3009F492C0EDC078
:10426000863109F4BFC0893109F0E7C08CE691E0DE
:104270009F938F9382EF9AE09F938F930E94CB0737
:104280000F900F900F900F9024C08A32E1F060F4ED
:10429000873209F4CEC028F48E3108F4CEC08D5197
:1042A000C9C0893269F1C9C0833448F48A3308F03F
:1042B000BEC0853309F4BDC0883369F0BEC0833405
:1042C00009F4B7C0BAC08EEE9BE00E9432070E948C
:1042D0005B11C1E0B7C081E399E081C080918003A8
:1042E000817F8E7F8093800387ED9AE00E94320762
:1042F0008AEE9BE00E94320781E080937F03E9CF42
:104300008EEC9BE00E9432070E946E239FEF24E315
:104310008CE0915020408040E1F700C000000E94F6
:10432000111FD7CF80918003C82FC095C170C0FBEB
:1043300080F980938003CC2329F082EC9BE00E94DB
:10434000320780C085EB9BE00E943207809180039A
:10435000897F877F80938003BCCF9091800391FBFE
:10436000CC27C0F981E0C827892FC0FB81F9809351
:104370008003CC2319F088EA9BE027C08AE99BE000
:104380002EC09091800392FBCC27C0F981E0C82712
:10439000892FC0FB82F980938003CC2319F08BE82E
:1043A0009BE013C08BE79BE01AC09091800393FBC6
:1043B000CC27C0F981E0C827892FC0FB83F98093FF
:1043C0008003CC2351F08FE69BE00E94320780915E
:1043D000800381608093800335C082E69BE00E9469
:1043E000320777CF0E94691F162F072FF82EE92E6C
:1043F000D0919502C09100010E94FD1FEF92FF92A3
:104400000F931F931F92DF931F92CF931F928F934F
:1044100085EF9AE09F938F930E94CB078DB79EB74D
:104420000C960FB6F8949EBF0FBE8DBF52CF895326
:1044300001C080E00E94C31D4CCF80E69BE00E943B
:104440003207C0E08C2FCDB7DEB7E6E00C945028E1
:1044500090917A0390FF04C09695981748F003C096
:10446000811106C090E0961718F40E94AF270895B6
:1044700061E00E942E270895882311F0FA0101C0FF
:10448000FB01099508951092D4028091800380FF6A
:1044900008C083EB96E09F938F930E94CB070F9009
:1044A0000F90089580E090E00E94E71F80E090E088
:1044B0000E94D11F10928A020E94D0110895A0E09C
:1044C000B0E0E5E6F2E20C9431287C010091B502FF
:1044D0001091B60280918D0290918E02082B192BBB
:1044E000CFE0D0E0CC24C394D12CC6010C2E02C066
:1044F000880F991F0A94E2F780239123892B21F4D6
:10450000219798F7B12C09C0BC2EB7018C2F0E94BF
:10451000AA0F0E94C30F019799F38B2DCDB7DEB779
:10452000E9E00C944D28CF93DF93EC010E945F22C9
:10453000BE010E94AA0F0E94C30FDF91CF91089580
:10454000953078F58F3068F5E82FF0E08FE0989F90
:10455000E00DF11D11249E2F977083E0F695E795ED
:104560008A95E1F7EE0FFF1FEE0FFF1FED56FC4F90
:1045700040E050E080E0219130E0092E02C0369505
:1045800027950A94E2F721703327042E01C0220FE9
:104590000A94EAF7822B4F5F5F4F4430510559F779
:1045A000089580E00895953088F58F3078F5E82FEC
:1045B000F0E08FE0989FE00DF11D11248E2F8770A1
:1045C00051E001C0550F8A95EAF783E0F695E7952B
:1045D0008A95E1F7EE0FFF1FEE0FFF1FED56FC4F20
:1045E00020E030E070E04081CB01022E02C09695C1
:1045F00087950A94E2F78170819584278523842723
:1046000081932F5F3F4F2430310569F708959093D0
:10461000B6028093B5020E945222089521E030E054
:1046200002C0220F331F8A95E2F7209530958091C2
:10463000B5029091B602822393230E940723089526
:1046400021E030E002C0220F331F8A95E2F780910B
:10465000B5029091B602822B932B0E9407230895F6
:1046600090938E0280938D020E9452220895CF93E0
:10467000FC018081918123813481232B31F09F3F84
:1046800031F491E08F3F19F403C091E001C090E054
:10469000C92FC17090FD1CC0808191810E9493221E
:1046A00092959F70963079F010F4925001C09A5014
:1046B000923088F4803F71F018F4883E60F40AC0AC
:1046C000843F49F407C0883E28F0813F21F402C0AE
:1046D000C0E001C0C1E08C2FCF91089510928B02F1
:1046E00086E0E3E4F2E0DF011D928A95E9F70E949B
:1046F00052220895882321F00E94C9110E94D011EE
:104700000895882339F090918B02892B80938B0236
:104710000E94D0110895882309F455C0682F82386B
:1047200069F40E94FD1F81FF4EC069E381E492E0BD
:104730000E94B71F0E94D01169E30EC0833899F41C
:104740000E94FD1F80FF3FC063E581E492E00E946C
:10475000B71F0E94D01163E581E492E00E94AA1F76
:104760000E94D0110895843869F40E94FD1F82FFD1
:104770002AC067E481E492E00E94B71F0E94D01132
:1047800067E4EACF8CEF860F813A30F380E2860F40
:10479000883048F4677081E001C0880F6A95EAF7B5
:1047A0000E94C911DDCF8BE5860F833028F480E0AD
:1047B00090E00E94E71F0895685A673120F480E076
:1047C00090E00E94D11F0895CF93882309F4CEC0B2
:1047D000C82F8238B1F40E94FD1F81FDC7C069E374
:1047E00081E492E00E94B71F0E94D0112FEF87EE64
:1047F00093E0215080409040E1F700C0000069E361
:1048000017C08338E1F40E94FD1F80FDAFC063E54F
:1048100081E492E00E94B71F0E94D0112FEF81EE39
:1048200094E0215080409040E1F700C0000063E533
:1048300081E492E00E94AA1F0E94D01197C08438A0
:10484000B1F40E94FD1F82FD91C067E481E492E013
:104850000E94B71F0E94D0112FEF81EE94E02150EB
:1048600080409040E1F700C0000067E4E1CF8CEFAA
:104870008C0F813AC0F580917F03882319F0813035
:1048800051F02BC080918B02823209F057C08C2FDF
:104890000E94972025C080918B028232C1F3C431DF
:1048A00091F018F4CB3029F011C0C93261F0C8334F
:1048B00069F487ED9AE00E94320786E09CE00E944E
:1048C000320781E008C010927F0304C084E09CE0BE
:1048D0000E94320780E0817003C010927F032EC0D7
:1048E000811144C02BC080E28C0F883068F4C770FF
:1048F00081E090E001C0880FCA95EAF790918B02A1
:10490000892B80938B0298CFEBE5EC0FE33040F4DA
:10491000F0E0E85EFE4F808190E00E94E71F26C035
:10492000C85AC73118F5EC2FF0E0EE0FFF1FE55E17
:10493000FE4F808191810E94D11F18C0E3E4F2E014
:1049400089E492E02191C21749F08E179F07D1F7B1
:104950006C2F81E492E00E94B71F6ECF6C2F81E430
:1049600092E00E94AA1F0E94D011F2CFCF91089529
:1049700060917A03669570E04BE050E08DE091E045
:104980000E945F28892B19F481E08093D4020E9451
:10499000751F9093BC038093BB038091800380FFBD
:1049A00008C085EF9DE09F938F930E94CB070F90E7
:1049B0000F90089580917A0380FF0AC0569A8BB1B8
:1049C0008F7B9BB190642FB7F894E5EDF2E00BC0BC
:1049D000E5EDF2E0118210821282339633E0EA377D
:1049E000F307C1F7EBCF33E0EA37F30789F03191F2
:1049F00048E09BB9000000C037FF8BB9330F0000BF
:104A000000C000C000C08BB900C04A9591F7EBCF41
:104A10002FBF8FE594E00197F1F700C000000895E3
:104A200090917A0390FF0CC0E5EDF2E08183608302
:104A30004283339693E0EA37F907C1F70E94DA24FC
:104A4000089580917A03282F269530E021153105AD
:104A500019F48170826005C02931310524F081701C
:104A6000806380937A030895CF92DF92EF92FF9252
:104A70006B017C010E942125B701A60188E090E02E
:104A80000E94E027FF90EF90DF90CF9008958091F3
:104A90007E03882319F0815080937E0360917A030E
:104AA00070917B0380917C0390917D030E9434255B
:104AB000089580917E03833018F48F5F80937E0386
:104AC00060917A0370917B0380917C0390917D03C8
:104AD0000E9434250895EAE7F3E083E080831182A1
:104AE0008FEF8283838314826081718182819381BD
:104AF0000E9434250895A0E0B0E0E1E8F5E20C94CE
:104B00003028E82EF62EE901E42FF0E0611106C00E
:104B1000E65FF34FE4914E2F2E2F71C0062F10E069
:104B2000E65FF34F4491F42FC42ED12C26E0829FF0
:104B3000C00111242FEF30E0B9010E940E285BEA7A
:104B40005603C001579F900D11248E0D911D8E0D9F
:104B5000911D582F550F580FD901A01BB10BAC9DBB
:104B6000C001AD9D900DBC9D900D1124E92FF59EC7
:104B7000D0011124AB2FBB277901EA1AFB0AEC9C68
:104B8000D001ED9CB00DFC9CB00D11245901A51A6B
:104B9000B108A09E7001A19EF00CB09EF00C1124F3
:104BA000EF2CFF242E193F092C9D80012D9D100D07
:104BB0003C9D100D1124212F6230710591F048F4B5
:104BC00061157105E1F061307105B9F4242F4B2FA7
:104BD00016C06430710569F040F06630710579F0F7
:104BE0000CC0242F492FE12F0AC0492FEF2F2B2F64
:104BF00006C0292FE42F412F02C0292FEB2F498314
:104C00002883EA83CDB7DEB7EAE00C944C28A3E012
:104C1000B0E0EDE0F6E20C94382890917A0390FF32
:104C20000AC09E012F5F3F4F0E947B254B81698107
:104C30008A810E9410252396E2E00C945428A7E074
:104C4000B0E0E5E2F6E20C942828582E262E342E09
:104C50002F8390917A0390FFB5C0E92FE695AE2F90
:104C6000B0E0AB5DBD4F8C918093D3029E7F9230BC
:104C700061F49E012F5F3F4F852D0E947B254B8164
:104C800069818A810E94102562C0823019F43090B7
:104C90007D035DC0863019F450907B0358C0893085
:104CA000D9F38F3009F053C0EF508E2F81708C8371
:104CB00081E09C8198279E83E695F0E0E051F24FD9
:104CC00084918D83682E712C85EDE82E82E0F82E7C
:104CD000C12CD12C00E010E097E3892E912C29EC17
:104CE000A22E2DE0B22EC601B4010E940E289C8196
:104CF000452C911102C0460E01C0461A80918003D6
:104D000080FF13C01F928D818F931F929E819F936E
:104D10001F924F921F930F93BF92AF920E94CB07A7
:104D20000FB6F894DEBF0FBECDBF9701432D622DA5
:104D3000842D0E947B250F5F1F4FC60CD71C93E06C
:104D4000E90EF11C0733110571F60E94DA24509226
:104D50007B0320927C0330927D038F818823E9F0CE
:104D600060917A0370917B0380917C0390917D0325
:104D70000E9434258091800380FF24C080917D03B0
:104D80001F928F9380917C031F928F9380917B035E
:104D90001F928F9384EA9DE00CC08091800380FF76
:104DA00011C01F923F921F922F921F925F928DE728
:104DB0009DE09F938F930E94CB070FB6F894DEBFC0
:104DC0000FBECDBF2796E2E10C944428EAE7F3E05A
:104DD000438128E0421B08F440E021E062818181A8
:104DE0000E941F260895EAE7F3E0438128E0420F7E
:104DF00008F44FEF21E0628181810E941F2608950F
:104E0000EAE7F3E0628128E0621B08F460E021E059
:104E1000438181810E941F260895EAE7F3E06281C1
:104E200028E0620F08F46FEF21E0438181810E9446
:104E30001F260895EAE7F3E0818121E04381628142
:104E400088500E941F260895EAE7F3E0818121E05F
:104E500043816281885F0E941F26089590917A03A2
:104E600090FF55C09170811102C0926006C08931D7
:104E700010F0906302C0880F982B90937A036623FA
:104E8000B1F060917A0370917B0380917C039091E3
:104E90007D030E9434258091800380FF1BC0809198
:104EA0007A0386951F928F9388E29DE00BC08091D4
:104EB000800380FF0FC080917A0386951F928F93A5
:104EC0008AE09DE09F938F930E94CB070F900F90F5
:104ED0000F900F9060917A03669570E04BE050E080
:104EE0008DE091E00E945F28892B19F00E944322F7
:104EF00002C00E94B82481E08093BE0320E040916C
:104F00007D0360917C0380917B030E941F2608959E
:104F100080917A03816080937A038091800380FF7F
:104F20000DC01F9281E08F9384E49DE09F938F9347
:104F30000E94CB070F900F900F900F9080917A03F3
:104F400060E086950E942E27089580917A038695C9
:104F5000815009F488E161E00E942E270895809134
:104F60007A0386958F5F893108F081E061E00E94C5
:104F70002E270895F999FECF92BD81BDF89A992701
:104F800080B50895A6E1B0E044E050E00C94F42729
:104F9000A8E1B0E042E050E00C94F427262FF99904
:104FA000FECF92BD81BDF89A019700B4021639F088
:104FB0001FBA20BD0FB6F894FA9AF99A0FBE089559
:104FC0000396272F0E94CF270E94CE27252F0E94CD
:104FD000CF27242F0C94CF270196272F0E94CF276D
:104FE0000C94CE27DC01CB01FC01F999FECF06C061
:104FF000F2BDE1BDF89A319600B40D924150504097
:10500000B8F70895991B79E004C0991F961708F026
:10501000961B881F7A95C9F780950895AA1BBB1B1C
:1050200051E107C0AA1FBB1FA617B70710F0A61BA8
:10503000B70B881F991F5A95A9F780959095BC01C9
:10504000CD010895EE0FFF1F0590F491E02D099416
:105050002F923F924F925F926F927F928F929F9288
:10506000AF92BF92CF92DF92EF92FF920F931F9376
:10507000CF93DF93CDB7DEB7CA1BDB0B0FB6F89427
:10508000DEBF0FBECDBF09942A88398848885F8467
:105090006E847D848C849B84AA84B984C884DF80D8
:1050A000EE80FD800C811B81AA81B981CE0FD11DBC
:1050B0000FB6F894DEBF0FBECDBFED010895FC0121
:1050C0004150504030F001900616D1F73197CF0192
:1050D0000895882799270895FB01DC0104C08D916C
:1050E0000190801921F441505040C8F7881B990B5A
:0650F0000895F894FFCFC3
:1050F60001FC1C971DFB1C921D8D1DF91C010F1038
:105106001112131415161718818283E200E900EABA
:1051160000B500B600B700CD008301CC008A01922D
:105126000194012102230224022502260227022AD3
:1051360002B300B4006F007000403222E603B403ED
:1051460092034C0465047E043031323337F5F6F7AA
:105156003635349794956766939291900A092D2077
:1051660056657273696F6E202D0A5649443A20308F
:10517600784641434128686569746F7261646F2996
:10518600205049443A203078303030312861646FFD
:105196002E7369636B363829205645523A2030788B
:1051A600303030310A4255494C443A2020284E6F5F
:1051B600762031312032303232290A4F5054494F4D
:1051C6004E533A204C5546412045585452414B4582
:1051D6005920434F4E534F4C4520434F4D4D414E62
:1051E60044204C544F203531320A4743433A203548
:1051F6002E342E30204156522D4C4942433A20320D
:105206002E302E30204156525F415243483A20619B
:105216007672350A00000102020202060606090934
:0E522600090909090F0F0F0F0F0F0F0F0F0FC0
:00000001FF
